:40000000807f3030303030307e3030307e3030307e3030307e3030307e3030307e3030307e3030307e3030307e3030307e3030307e3030307e3030307e3030307e303030dd
:400040007e3030307e3030307e3030307e303030303030303030303030303030303030307d05827e7e3030307e3030307e3030307e3030307e303030303030307e303030b2
:40008000711062e38770ef62e33841fefb50804e62e33855f80055f900711062e00270ef62e338627105627505627905627d0562d10350004e62d30362d00062d50062d4e3
:4000c0000071c07c032770ef62d000500257600828530f18750900284b510f800475090062e300082860d574a04b187509000828530f187509000828a01c530e18750900e8
:4001000008283f0f470fffb0065dd57460d5187a0ebfeb8fc9187509000828530e50003f0f470fffb0085dd57460d550007a0ebfef188faa18711070ef62e000711062e038
:400140000043e20070ef62e2007c073f8fff50107f3030303030303030303030303030303030303030303030303030303030303030303030303030303030303030303030b8
:40018000303030303030303030303030303030306200602966006100fc00fd0063056500e600e700a000a200a400a600a100a300a500a700d648e800e900a800a900b700e7
:4001c000bf00b000b100b200b333b433b500b600b855b900ba10bb33bc33bd00be00ff610069008b0060008a0089007509760077007a33620067336833630066006a00afb5
:40020000007b00790064006500fd00dc009100950099009d009a0092009600d400d500d600d700d100a100d300a300d000a000d200a200ad00e700e1ffe200dfffde02ddf7
:40024000008500d800d900da00db00ec00ed00a700a400a500a6008200810071007200ff08d770ef62000071106200006201ff70ef6203ff62020071106202006203007079
:40028000ef62010062040371106204036205ff70ef6207ff620600711062060062070070ef62050062080071106208006209ff70ef620bff620a007110620a00620b00702c
:4002c000ef620900620c007110620c00620d0070ef620f00620e007110620e00620f0070ef620d00621000711062100062110070ef6213006212007110621200621300706e
:40030000ef621100621400711062140062150070ef621700621600711062160062170070ef62150070ef7f7c032e7c02627f1070ef500067500157907c03495001675001c6
:4003400057df7c034970ef207f380210084f56fc00d00456fc01182070ef62e30010082839ffa01f4f48fc01a003711054fd18207509001008284f59fd6100182075090099
:400380008fd738fc703f71c07f62d0004f5102470280bffa2e028052fd642901530160d855000052f953001052fa0852fb0852fc08930c38fd20510148f901b00a49d70170
:4003c000b005912e80039093703f71c07f62d0004f5102470280bffa2e028052fd64550000530160d852f953001077fa52fa0852fb0852fc08930638fd20510148f901b09a
:400400000a49d701bfc190ea8003904f703f71c07f62d0004f5102470280bffa2e028052fd64550000530160d852f9530010500077fad002740852fa0852fb0852fc0892ee
:40044000e938fc20510148f901b00a49d701bf7790a080039005703f71c07f62d00060d853015dd9210fa01162d90249d704b00562d7047f62d7007f510190767f62d0008b
:40048000085500005102470280bffa186479c003290160d8530149d904a01c62d90262d7005dd749d701affa49d702b00755000150017f50007f50007f62d000085500001a
:4004c0005102470280bffa1841defe49d701b0206479c003290160d8530162d9015dd749d701affa49d702b00755000150017f50007f62d00060d8530162d9017f62d000f8
:4005000060d841defe5dd949d904a01955000062d7045dd749d701affa49d702b0075500ff50017f500053007f62d0002600fe49d701bff649d702b0042e00017f62d000c0
:4005400041defe49d904a028550000085dd749d708a00462d70049d701affc1821ffa00a5dd862d7105500017f5dd85500007f5500ff7f49d904a00462d7007f62d00051f8
:40058000007f08105dd30849d708a01849d901b02f49d702b01e470101b02e80a71860d320187e2e0280470101b02d809d1860d320187e62d70026027f1860d320187e2650
:4005c000027f1860d320187e2e02802602fb62d7001860d320187e470004b0147a03c04f3c0300a00380062e000480042600fb2e0210510460d358055dd8703f7180540044
:40060000703f71007605470004b00a62d7101860d320187e2600fb2602f82e02012e0204260003a00a26027f1860d320187e62d70026027f1860d320187e62d7101860d33a
:4006400020187e2602bf2e028049d702b04c500408510660d35807703f71805200703f710060d87a08c00e760780011860d71860d320187e26028f2e02402e021026000352
:40068000a00b1826027f1860d320187e1862d70026027f1860d320187e76087a07d0037a0662d70026027f26028f2e02402e02201860d320187e26027f1860d320187e1074
:4006c0004f79085dde0841defe62d0002600fb52fc530452fd530552fb53033901a008c00626028f80092e000426028f8001182101a00443de011820703f71c07f62d0006d
:40070000104f79085dde0841defe52fc530652fd530752fb53087a082602f0182101a00443de011820703f71c07f7f62d00051027f62d0002602f87f62d00026028f7f8014
:400740000390048ffd8fff104f380410570050187c04b92062d0001050057c04fd2062d000107c0573570150187c04b92062d0001050017c053d2062d00054001050007caf
:40078000053d2062d0005401107c05732062d000520021803980b00162d000520021403940b00162d000520021203920b00127001f62d000520021103910b05027000f52f3
:4007c00001530e500008501008500008510e087c085018530e18530f38fe5200530c550d00650c6b0d650c6b0d650c6b0d650c6b0d510c020e530e510d0a0f530f5000125b
:400800000e540350011a0f5402804262d0005201530e500008501008500008510e087c085018530e18530f38fe5200530c550d00650c6b0d650c6b0d650c6b0d650c6b0da8
:40084000510c020e5403510d0a0f540238fc207f104f50003dfb80c00d37fcff77fc37fbff0dfb50c03df980c00e37faff77fa37f9ff0ff9003180087c089e186ad00c3726
:40088000fcff37fbff77fc0ffb006ad00c37faff37f9ff77fa0ff90020703f71c07f5dd00862d0005000530a530b55091066fc6cfb6b0a6b0b510a1bfa510b1bf9c0095362
:4008c0000b52fa1c0a77fc7a09bfe3510a54fa510b54f91860d07fff003030303030303030303030303030303030303030303030303030303030303030303030303030307b
:4009000030303030303030303030303030303030303030303030303030303030303030303030303030303030303030303030303030303030303030303030303030303030b7
:400940003030303030303030303030303030303030303030303030303030303030303030303030303030303030303030303030303030303030303030303030303030303077
:400980003030303030303030303030303030303030303030303030303030303030303030303030303030303030303030303030303030303030303030303030303030303037
:4009c00030303030303030303030303030303030303030303030303030303030303030303030303030303030303030303030303030303030303030303030303030303030f7
:020000040010ea
:020000040020da
:020000003b972c
:00000001ff
